:10000600544F5543480045522D54465430313238EA
:100016002D31007777772E627579646973706C611C
:10002600792E636F6D0064726177696E67204C6923
:100036006E652C52656374616E676C652C436972DC
:10004600636C650000000000000000000000000076
:1000560000002020202020200020000000285050F2
:10006600000000000000000000002828FC2850FCCA
:1000760050500000002078A8A0603028A8F020008A
:10008600000048A8B0502834544800000000205012
:100096005078A8A8906C0000004040800000000046
:1000A60000000000000408101010101010080400D2
:1000B60000402010101010101020400000000020FA
:1000C600A87070A8200000000000202020F8202042
:1000D60020000000000000000000000000404080FA
:1000E6000000000000F80000000000000000000012
:1000F6000000000000400000000810101020204002
:1001060040408000000070888888888888700000D9
:100116000000206020202020207000000000708851
:100126008810204080F80000000070880830080819
:1001360088700000000010305050907810180000B1
:100146000000F88080F008088870000000007090B9
:1001560080F08888887000000000F8901020202029
:100166002020000000007088887088888870000051
:100176000000708888887808487000000000000039
:100186002000000000200000000000000020000009
:100196000020200000040810204020100804000061
:1001A60000000000F80000F80000000000402010E9
:1001B60008040810204000000000708888102020E5
:1001C600002000000000708898A8A8B88078000079
:1001D600000020203050507848CC00000000F04845
:1001E6004870484848F00000000078888080808089
:1001F600887000000000F0484848484848F0000071
:100206000000F8485070504048F800000000F848D8
:100216005070504040E000000000384880809C88C4
:10022600483000000000CC484878484848CC0000D8
:100236000000F8202020202020F8000000007C107C
:10024600101010101090E0000000EC485060505064
:1002560048EC00000000E0404040404044FC000004
:100266000000D8D8D8D8A8A8A8A800000000DC4864
:100276006868585848E800000000708888888888B0
:10028600887000000000F0484870404040E00000E0
:1002960000007088888888E8987018000000F04888
:1002A6004870504848EC00000000788880601008CC
:1002B60088F000000000F8A8202020202070000010
:1002C6000000CC4848484848483000000000CC4868
:1002D60048505030202000000000A8A8A8705050B8
:1002E600505000000000D8505020205050D8000038
:1002F6000000D85050202020207000000000F89008
:100306001020204048F8000000382020202020201F
:100316002020380000404040202010101008000027
:1003260000701010101010101010700000205000F7
:1003360000000000000000000000000000000000B7
:10034600000000FC0020000000000000000000008B
:100356000000000000304838483C00000000C04063
:1003660040704848487000000000000000384840CF
:10037600403800000000180808384848483C00008B
:1003860000000000003048784038000000001C20C3
:10039600207820202078000000000000003C483033
:1003A600407844380000C0404070484848EC00009F
:1003B60000002000006020202070000000001000D7
:1003C60000301010101010E00000C040405C50706B
:1003D60048EC00000000E0202020202020F800004B
:1003E6000000000000F0A8A8A8A800000000000077
:1003F60000F0484848EC0000000000000030484883
:10040600483000000000000000F04848487040E016
:1004160000000000003848484838081C000000006A
:1004260000D8604040E00000000000000078403046
:10043600087800000000002020702020201800000E
:100446000000000000D84848483C000000000000BA
:1004560000EC4850302000000000000000A8A87002
:10046600505000000000000000D8502050D8000076
:100476000000000000EC4850302020C000000000C2
:10048600007810202078000000181010102010109E
:10049600101018001010101010101010101010105E
:1004A60000602020201020202020600040A418009A
:1004B6000000000000000000851B025A1A9B12BBB8
:1004C60012BB1ABC0ABB22DC333C12BC12BB12BCE8
:1004D60012BC12BB12BB12BB129B0A7B1ADC1AFBA4
:1004E60022DB0ABB129B12BA12BA12BA12BB12BB99
:1004F60012BB12BB12BB12BB12BA12BA12BA12BB91
:1005060012BB12BB12DA12DA12DA12DA12DA12FAA3
:1005160012F91AFA196A106110821062084108412C
:100526000862086208610861106208610861106269
:100536001082108210821082108210621062106285
:100546001062106210821062106210A3212531869B
:1005560031C83A4B428C31A718C310830882086110
:1005660018C318C30882108218C318E418C310C32E
:1005760008A318E4214619252145088210C30862FC
:100586000021084108421083294531A731864A6A6D
:1005960052AC39C72104084110C4190619F112D901
:1005A60012B80AB802786C9B851B025A129B12BBC2
:1005B60012BB0A9B2B5B6C9B4BDB439C0A9C12BCBD
:1005C60012BB12BB12BB0A7B22DA645A4BDA6419DD
:1005D60053FA5C5B1ADA0A9A12BB12BA1ADA129B3F
:1005E600129B129B12BB12BB12BB12BB12BB12BBDD
:1005F60012BB12BB12BB12DB12DA12DA12DA12F9D2
:10060600131A1A101083088208620861084108410B
:100616001082086108610861086110821082106208
:1006260008610861106210620861084108410841CA
:10063600086110A2108210621062106218A3294588
:10064600424B4A6B39E8292520C3292418A220C326
:10065600290418A318C3210418C31082108210831A
:10066600190410A31905212518E410A310C3086264
:100676000862086210A3086220E44A29524A39E84F
:100686004AAB4A2939E8296610A3190821AD127622
:1006960012B90AB802786C9B851B0A5A12BB129BC8
:1006A60012BB0A9B645B22FB231C53FB0A9C12BCF5
:1006B60012BB12BB0A9B2B1A6C9A2B3A129B853CD7
:1006C60012BB3BBB5C5C025B027B543B43BA0A7ABF
:1006D600129A129B12BB12BB12BB12BB12BB12BBED
:1006E60012BB12BB12BB12DB12DA12DA12DA12FAE0
:1006F6001A9610E408610862086108410841086119
:100706001082086108610861086110620861084189
:1007160010621062084108410841084108611082D0
:1007260018C318A30861086218A318C42146426CAE
:10073600428C320939E9292641E84186398639C78A
:10074600316629242124210410621082108210A30C
:1007560021052125190418E4088308620842086265
:100766000862086210A318E418C339C86ACC62ED9F
:100776004A8B4A8A31A729662946190921CF19F1D8
:1007860012B912D802786C9B8D1B025B12BB337BAD
:100796000A7C231B649B12BB749B2B7A0A9B12BB9D
:1007A6000ABB12DA023A6CDA43BA025A3B9B437A24
:1007B600023B4BDA853C335B129B5C1B129B12BBE4
:1007C60012BB12BB12BB129B12BB12BB12BB12BBDB
:1007D60012BB12BB12BB12BA12DA12BA12DA12DA50
:1007E600198C0881088208620841084208410841BC
:1007F60008410861086108610841086110820862C1
:10080600086108410841084108410841084108417A
:1008160008610861108218E4290529A8320A39E915
:1008260039A73A09318739C8522849C73186294537
:1008360031252945294518C318A318A218C4190536
:1008460018E42125210410A31083086208620862B7
:100856000882212521042125190421454229630DF9
:1008660052AC424A422921252145214819F321D07B
:10087600127612D902786C9B851B025B129B5C1B5D
:10088600335B647B749B4BFB84FB2B3A43DB7CFB27
:100896004C1C647B6CBB333C6C9B3B7A6C9A335B25
:1008A60043DB9D9C643A53FA439A645B335B0A9A32
:1008B600129B129B129B129B129B12BB12BB12BB6A
:1008C60012BB12BB12BB12BB12DA12DA12DA1A32DE
:1008D60010C3086208620842106208620862086172
:1008E60010821062086108410861106108610841C0
:1008F60008410841084108410841084108410841AA
:10090600084110A218C318C321043165316639C8DD
:10091600420939A7314552065207418631453965A4
:100926003986314528E420E320E4294529862966CD
:1009360021451904210418C30862086208620842A6
:10094600084218C339C7422839E819042966424AB9
:10095600528B39E839C8316518A319071A1321F1E2
:100966001A3512D902796C9B853B025B2B3B645C82
:1009760074DBAE1C335B333B4BDC5C5BB65B955B7D
:100986005C5B9D9A7D1B0A9C025B439B953A541ABD
:1009960053DC6C59021A3B7B84F98D59541B0A7B34
:1009A600129A129B12BB12BB129B12BB12BB12BB3A
:1009B60012BB12BB12BB12DB12DA12BB2278192849
:1009C60010830883086208621082106210A31082E6
:1009D6000861084108610861084108610861086109
:1009E6000841084108410841084108410861108250
:1009F60018C318A3188218C329243965422A4A4BFA
:100A0600524949C65A276A475A2851C649A641C774
:100A1600294528E4312441C7528B42493A2929A75E
:100A26002986190418E418C408620842106208628C
:100A36000842084121044A695ACB3A0818E42105BC
:100A4600424A528B3186294518A310A419F11A324D
:100A56001A3312B802796C9C853B023A647A43BB1E
:100A6600541B7CDB4BFA4BFC6C9B8D5CA5FC4B7BD7
:100A76009D7C6CBC6CBC12DA0A7C647A3B7B025CA3
:100A86001ADB6CBA4BFA5C1A84FB6CBC3B9B0A7B88
:100A960012BB12BB12BB12BB12BB12BB12BB12BBE8
:100AA60012BB12BB12BB12BB12DA1ABB19F21083AD
:100AB6000883088208620882108210A210A20861C8
:100AC6000841084108610841086108410861086158
:100AD60008610841084210821062106210822104E7
:100AE60018A3106220A328E431454209528C5A8A81
:100AF60062896AA972C972CA62896A4752083966E6
:100B0600392541A65A48734C632C5B0C5AEC428A31
:100B160029A7212518C4108208620862086218C332
:100B2600108310A3210439E752AA4A6A21462105F7
:100B3600318639E839C829452104108219AF1A349B
:100B46001A33127802796C9C853B025B231B5C9BF3
:100B5600541B0ABB1AFB439C2B1B6C9B1AFA12FBF9
:100B6600335A0A9A337A12BB0ABC2B3A12BB129C2E
:100B76000A7B231B3B7C129B0A9B1ADA2B1A0A9BC5
:100B8600129B12BB12BB12BB12BB12BB12BB12BB17
:100B960012BB12BB12BB12BB12BA1A9818E7088214
:100BA60010A308820862088210A310820841086117
:100BB600084108410841084110820841086108615E
:100BC60008611062108310831062108318C318C363
:100BD60018A228E32904310541A75AAB6AEC734DE4
:100BE600732C7B0B7B2A72E97288624841A651E717
:100BF60051E76AA98BAD8BCE6B2B6B4C6B6D52CBD1
:100C060039E818C410A3108208620862084210A3CB
:100C1600292518C4212429664A8A52AC31C72125C0
:100C260031E93187294618E418E418E3198C1A5576
:100C36001A13127502786C9C853C027B0ABC0A9BCF
:100C46000A9C12DB12BC6CBA5C5A3BDB12DC337BAF
:100C56002B5B335B335B2B3B233B2B5B335A2B3BAF
:100C6600335B43DA2B5B22FA335A339A12BB12BB3D
:100C760012BB12BB12BB12BB12BB12BB12BB12BB06
:100C860012BB12BB12BB12BA12DB19CF108210A311
:100C960008620862086208621082108208410861D0
:100CA600084108410841084108410861106208618D
:100CB6000861108210621061188218A220A328C34E
:100CC60028E328C331244A0862AA72EC732C7B2CD1
:100CD6007B2B832A83097AC85A4851E762286248DF
:100CE6008B6CAC70AC709C0E8BAD6B0B5AAA52AA77
:100CF6004A6A294618C41083088218A3108310A3D1
:100D060021043166292410C3296652CC426A214542
:100D16002987422A298718E418C318A318E71A5501
:100D26001A341A5502786C9C853C025B12DC12BCA4
:100D360012BC12DC0ADC231B337B0A9C2B7B8D5CEA
:100D46006CDC751C751C6CBC43BA857B7D3B74FAE8
:100D5600647B647B541B647B6C9A7D3B22FB0ABBE1
:100D660012BB12BB12BB12DB12BB12DB12DB12DB95
:100D760012BB12BB12DB12DC1A7718E6108308824C
:100D860008820882108208420862086108410861E8
:100D960008410841084108410841086108410841E5
:100DA600086210621062188228E328E328C328A389
:100DB60028E33924520862896ACA6AEB7B0B832BC3
:100DC6008B4B8B8B830A62485A286A897AEAC4B1AC
:100DD600E595DD75CD13B490BCB1A44F72EA62AA55
:100DE600526939A7290518A3108218A3212518C30B
:100DF60029453185422718E3086229A7424A31A7C7
:100E0600296631E931A7214520E418A418E51A130B
:100E16001A56225502996CBC853B025B12BC12BC69
:100E260012BB12BC12BC0ABB0ABB12DC12BB1AFBF9
:100E360012BB1ADB12BB1AFB3B9B1AFB1AFB1B1BD2
:100E46001ADC129B12DB1AFB12BB12BB12DB12BBA3
:100E560012BB12BB12BB12DB12BB12DB0ADB12FC8B
:100E660012DB12DB12DB1ABB21AF10A3108310A317
:100E76001083086208620842086208610861084136
:100E860008410841084108410841084108411062EB
:100E96001082106220A330E428E420C320A331048A
:100EA600418651E7626862CB6AEB836B8B6B93ADCD
:100EB60093AD732B5A686A487A889B8CDD74F61852
:100EC600EE17E5F6DD54CD12CCF1BC909BED72EA3F
:100ED6005A2841A63125290518C418E42946294669
:100EE600318731A55248420721042105424A298605
:100EF600298731E939C82146210418C418C521F1CA
:100F06001A961A7402B96CDC8D1B025B12BB12BCFA
:100F160012BC12BC12BC12BC12BB12DB12BC12BC3D
:100F260012BC12BC12BC129B0A9B12BB12BC12BC96
:100F360012BB12BB129B129B12BB129B12BC12BCA1
:100F460012BC12BC12BC12BC12BC12BB12DB0ADCF5
:100F560012DB12BB12BB227719271083088310837A
:100F6600108208620862084208621061084108415E
:100F760008410841084108410841084110621082B1
:100F8600188218A2310430E420A320A3390549862B
:100F96005A4862696289730C834C93AC8BAD8B8D16
:100FA600730B526972C98309B44FEDF7F658F658B8
:100FB600F658EE37E5D5E594DD52BC8FA3EC938B5E
:100FC60062A85207418631452925294621253166E1
:100FD60031A731A74A284A2821451904318739E71C
:100FE600298729CA298718E4210418C418A3198E49
:100FF60012971A5402796CBC8D1B025A12BC12BC91
:1010060012BC12BC12BC12BC12BB12BB12BB12BC6D
:1010160012BC12BC12BC12BB12BB12BB12BC12BC5D
:1010260012BB12BB12BB12BB12BB12BB12BC12BC50
:1010360012BC12BC12BC12BC12BC12DB12DB0ADCE4
:1010460012DB12BB1ABB21CF10C3108310A410836E
:1010560008420842086210620862084108410861B5
:10106600086108410841084108611062108218822F
:1010760018A328E428E428C330E3414551A6624872
:1010860062686AA97B2C8B6C836C832B7B0B734CFD
:1010960062CA7B0AA3CDCD13F679F699F699F6794D
:1010A600F678F637EDF6EDD5E593BCB0A3EC9BEDFF
:1010B6008B4B624851C64186290429052925296595
:1010C60039E839E94A695ACA31C8190410C3296589
:1010D600316629A8214618C418C418C418A31929AA
:1010E6001A751A5502786CBC8D3C025B12DC12BC78
:1010F60012DC12DC12BC12BC12BC12BC12BC12BC3A
:1011060012BC12BC12BC12BB12BB12BB12BB12BB6E
:1011160012BC12BB12BB12BB12BB12BB12BC12BC5E
:1011260012BC12BC12BC12BC12BC12DC12DC12FCC9
:1011360012DB12DC1A771105108310A310A30842E4
:101146000862086208620862084108410841108284
:1011560008610861084108411061108218A31062F5
:1011660020C320C328A3390449455A0762276A6861
:1011760072A97B2B7B0A7AE9830A836C7B6D6AEB07
:10118600832CAC50D554FE79FE79F69AF69AF69AE7
:10119600F679F658EE16EDF5E594CD11B44EA3CCDE
:1011A6009BAC7AAA5A2849A6398621053166294573
:1011B60041E839E952CB6B4D4A8B18E410C318C38A
:1011C60031862947190518C418E418C418A318E667
:1011D6001A351A5702786CBC853C027B12BC12BCCD
:1011E60012BC12DC12DC12BC12BC12BC12BC12BC49
:1011F60012BC12BC12BC12BB12BB12BB12BC12BC7C
:1012060012BC12BB12BC12BC12BC12BC12BC12BC69
:1012160012BC12BC12DC12BC12BC12DC12DC0ADCE0
:1012260012DB1ABC218D0862088318C31062108273
:10123600108208620862084208620861086110822A
:10124600084108410841108210821082106218A3DA
:1012560028C328C3412451A6622862276A677AEA0E
:10126600834B7AE97AE98B6A8B8C732C6AEB8B6DEC
:10127600B450DDD6F679F679FE7AFE9AF69AF69AA3
:10128600F659F638EE17EDF5E5B4DD53CCF1AC0DB5
:101296009BAC8B2B6AA9520741C73967290541C701
:1012A6003186426B3A2A5B0E5B0D298610A31082AB
:1012B6002945294718E510A410C318C4188310C679
:1012C60019F31A5702586CBC853B025B12DC12DC20
:1012D60012BC12BC12BC12BC12BC12BC12BC12BC98
:1012E60012BC12BC12BC12BB12BB12BB12BC12BC8B
:1012F60012BC12BC12BC12BC12BC12BC12BC12DC58
:1013060012BC12DC12DC12DC12BC12DC12DC12DCA7
:1013160012FC1A7818C510A310C41082108310A3EB
:1013260008820842084108620862086108610841AB
:10133600084108611082108210621061188228E349
:1013460030E3412551A65A0662476A887AE97B0A44
:101356006A88830993AB836B62AA6ACA938CB4B119
:10136600E5D6F658F679F679FE7AF69AF69AF69969
:10137600F659F638F637F616EDF5ED94DD32BC6F14
:10138600A3EC938C7B0B5A4849E74A2929253186D9
:1013960042083A093A4B4AAC5B0D3A0818E410A2E7
:1013A6002945296718E518E5108318C320E410C4F9
:1013B60019D01A780A586CBC8D1B025B12BC12DC61
:1013C60012DC12BC12BC12BB12BB12BB12BC12BC8A
:1013D60012BC12BC12BC12BB12DB12BB12BC12BC7A
:1013E60012BC12BC12BC12BC12BC12BC12BC12BC87
:1013F60012BC12DC12DC12DC12DC12DC12DB12DB99
:1014060012FD19CF086210A410A410A40883086264
:1014160008620841086108620862086108410841DB
:1014260008611082108210821062188328C330E38C
:10143600498562286A886AA772C87AE972C96A67A2
:10144600832A9BCC834A62AA6AAA8B8CBCD2E617F3
:10145600F678F679F679F679F69AF69AF69AF6998C
:10146600F679F658F637F616EE16EDD5E593CCD0A6
:10147600B44E9BCD8B6B6AA941E74A6A4A4A20E47F
:101486004A4A31C83A4B3A2A4AAC424A31A71082F4
:1014960018A321251905192518C410A318A418A3E3
:1014A60019AE1AB802586CBC8D3B025B12BC12DC3A
:1014B60012DC12BC12BC12DB12BB12BB12DC12BC59
:1014C60012BC12BC12BC12BB12BB12BB12BC12BCA9
:1014D60012BC12BC12BC12BC12DC12BC12BC12DC56
:1014E60012DC12DC12DC12DC0ADC12DC12DB12FC6F
:1014F6001ABA10E610A310A410A3086208420862E4
:10150600086210621082086108610861084108617A
:10151600108210620861106218A220C3310449A625
:101526005A4872C97AE983297B096A8872A88B6B43
:101536009BEC7AE96248628893ADCD13EE37EE589C
:10154600F678F679F679F69AF69AF69AF69AF6997A
:10155600F679F678F658F637F636EDF5E5D4DD7217
:10156600C48FA40D9BAC7B2A4A0839C74A6A210559
:1015760031874A4A31E93A2A424A424A318620E3C9
:10158600108218E4086218E418E4108218A318C43C
:10159600198D1A980A586CBC853B025B12DC12DC6A
:1015A60012DC12DC12DC12DC12DC12DC12DB12BBE7
:1015B60012BB12BC12BC12BC12BC12BC12BC12BCB6
:1015C60012BC12BC12BC12BC12BC0ABC12DC12DC6D
:1015D60012DC12DC12DC0ADC12DC12DC12DC0B1C64
:1015E6001A3310A410A310830862108310820842D5
:1015F600086210820861086108610861086110824A
:101606001082084110621082188228E349E7628836
:101616007B0983098B2A832A6A677B0993CBA3ED0F
:101626007AC962276247938CCD53EE17EE58F65867
:10163600F679F679F69AF69AF69AF69AFE9AFE9A56
:10164600FE99F679F678F657F637F616EDF5E5B320
:10165600D511B44EA3AC8B6B5A68398639C741E8AD
:101666002105424A3A093A09424A3A0921452124C2
:10167600108220E4084110A318C4106210A318C3F6
:10168600198D12780A586CBC853B027B12DC12DC81
:1016960012DC12DC12DC12DC12DC12DC12DC12DBD5
:1016A60012BB12BC12BC12BC12BC12BC12BC12BCC5
:1016B60012BC12BC12BC12DC12BC0ADC12DC0ADC44
:1016C6000ADC12DC12DC12DC12DC12DC0AFC12FC74
:1016D600198C10A310830862106210A308620842D6
:1016E600086210820861084108611082108210A207
:1016F600106110821082188220A2290452287B0BC6
:101706007B098B4A830972A88B2A9BCCA40D830A7A
:1017160062686A688B6CD574EE17EE37F658F67900
:10172600F679F699F69AFE9AFE9AFE9AF69AF69A3D
:10173600FE99F679F678F658F657F636EDF5E5D4CD
:10174600DD73CCD0ABED8B8C62A939862945422955
:1017560029452966422931C739E84A8A296610A2ED
:1017660010822104086210A318C40862108310A214
:10177600198C1A7702786CBC853C027B12DC12DC71
:1017860012DC12DC12DC12DC12DC12DC0ADC0ADCF3
:101796000ADC12BC12BC12DC12DC12DC0ADC0ADC2B
:1017A6000ADC12DC12DC12DC12DC12DC12DC12DCCB
:1017B6000ADC12DC12DC12DC0ADC0AFC0AFC1A99CE
:1017C600190710A3088308620862086208620862A3
:1017D6001083086208410841106210A21082086155
:1017E600108218A228E328E320C321043965624841
:1017F600834B7AEA72A893AC9BCCA40C7B0A6268F2
:10180600626893ADDDB5EE17EE37F657F658F67902
:10181600F679F699F67AFE9AFEBAFEBAF69AF6992D
:10182600F679F679F678F658F657F636F615EDF4B3
:10183600E593D511B44E93CD6AEA318620E4298624
:1018460031A718A339C739E72965424931A710825C
:10185600086120E4108210A318E41083084218A23D
:10186600194B1A5502996CBC853C027B12DC12DCC2
:1018760012DC12DC12DC12DC12DC12DC12DC12DCF2
:1018860012DC12DC12BC0ADC12DC0ADC0ADC0ADC22
:1018960012DC0ADC12DC12DC0ADC12DC12FC12DCC2
:1018A60012DC12DC12DC12DC0ADC12DC0AFD1A1372
:1018B60018E510A3086208620862086208621082CE
:1018C6001082084208410862108210820861106284
:1018D600188320C3394451E74165290320E3316564
:1018E600628972A993AD9BEDA42E830A6A686A6821
:1018F600936CD594E616EE17EE37F638F678F67949
:10190600F679F69AF69AFEBAFEBAFEBAF69AF69AFA
:10191600FE99F679F678F657F657F657EE16EDD5A0
:10192600E594DD32BC8F93EC732C41A718C42125B6
:101936003187210421043186292539E731A618C3C8
:10194600086118C310831082292510A30862188223
:10195600196A1A7502986CBC853C027B12DC12DC93
:1019660012DC12DC12DC12DC12DC12DC12DC12DC01
:1019760012DC12DC12DC12DC0ADC12DC12DC0ADC01
:101986000ADC0ADC0ADC12DC0ADC0ADC12DC0ADC11
:1019960012DC12DC12DC12DC12DC12DB12DB218D13
:1019A60019061084106208620862086208621082D2
:1019B600086208410842106210621082108210828A
:1019C60020A339656A897B2A72EA5A07312428E4FA
:1019D60041867B2B8BAC9BED7B0A6A886A88938C4D
:1019E600DD54E5B5E5F6EE17EE37F658F678F679F6
:1019F600F69AF69AFEBAFEBAFEBAFEBAFE9AF69AB9
:101A0600FE99F679F658F657F657F657F636EDD4A8
:101A1600E594DD52C4B093CC732C422818C410A3AD
:101A260018E4212518C4210529052945212518C3AF
:101A3600108210A310A3106218C418C40862108381
:101A460021481A5402B964BC853C027C0ADC12DCCB
:101A560012DC12DC12DC12DC12DC12DC12DC12DC10
:101A660012DC12DC12DC12DC0ADC0ADC0ADC0ADC20
:101A76000ADC12DC0ADC12DC12DC0ADC0ADC0ADC18
:101A860012DC12DC12DC12DC12DC12FC1A792148A0
:101A960010C41083106208620862108210A31082BC
:101AA6000862084108621062108210821082188251
:101AB60018A331455207730A8BAC834B62074965FD
:101AC60039455A48836C72A95A076A888B2AD532D7
:101AD600DD94E5D5EDD5EE16EE17F658F679F679DE
:101AE600F69AF6BBFEDBFEDBF6DBFEDBFEBAFE9A03
:101AF600F699F678F678F658F657F657F616EDD4C0
:101B0600E593DD52C4D09BED6B2B4249212510A3F2
:101B160010A3210420E418E421043145294510824C
:101B2600108210A310A310A308620862086210A412
:101B360019291A5302BA6CBC853C027C0ADC12DCF9
:101B460012DC12DC12DC12DC12DC12DC12DC0ADC27
:101B560012DC12DC12DC0ADC0AFC0AFC12DC12DCE7
:101B660012DC0ADC12DC12DC12DC12DC0ADC0ADC17
:101B76000ADC12DC12DC12DC12DB12FC1A56192605
:101B860010C40862106210821082108310A30862CB
:101B960008420862106110821082108218A2108218
:101BA600210420E339656289838E93CE72C95A0671
:101BB600396549E662685A0662278B4BCCF1DD53DC
:101BC600E5B4E5D5E5D5EDF6EE17F658F679F69ACD
:101BD600F6BBFEDCFEFCFEFCFF1CFEFCFEDBFEBADA
:101BE600F699F698F678F678F657F637EDF5EDB4F9
:101BF600E573D531C4B093EE6B4C4A49214518E4E0
:101C060010A31904210529462945290429451062EE
:101C1600084118C3108318A3086210A310A310A4C8
:101C2600192A1A5402BA6CBC8D3C027C12FC12DCD6
:101C360012DC12DC12DC12DC12DC12DC12DC12DC2E
:101C460012DC0ADC0ADC0ADC0AFC0AFC12DC12DC06
:101C560012DC0ADC12DC12DC12DC12DC12DC0ADC1E
:101C66000ADC0ADC12DC12DC12DC12DC1A54214714
:101C760010A4088210831082108210830862084222
:101C86000862108210821082108220C320E34A8AE2
:101C96004A6A10A218E331656B4D730B834B72C908
:101CA60051C551E659E661E682EABCB0CD12DD7354
:101CB600E5B4E5D5E5D5E5F5EE17F638F659F67946
:101CC600F69AFEDBF6FCFF3DFF5EFF3DFEFCFEDB0B
:101CD600FEBAF699F698F678F657EE36EDF4E5B3D1
:101CE600DD73D4F1BC908BEE6B4D526A29662125CB
:101CF60010C419042105212520E420E4316518C308
:101D0600084118A310831082108310A408A310841E
:101D1600194B1A3302BA6CBC8D3C027B0ADC12DC0E
:101D260012DC12DC12DC12DC12DC12DC12DC0ADC45
:101D360012DC12DC0ADC0ADC12DC12DC12DC12DC3D
:101D460012DC0ADC0ADC12DC12DC0ADC0AFC0ADC25
:101D560012DC12DC12DC12DC12DC1ABB2212214865
:101D660018A4108310A310821082108308620862E0
:101D7600108210821082108220E4396541E773D107
:101D860031C8186208624A494A4962CA836D7B2B88
:101D96006A4759E659E67AE9A42EC4B0D512DD742D
:101DA600DD94E5B5E5B5E5D5E5D6E5F7E618EE3813
:101DB600EE58EE79F69AFEDCFF3DFF5EFF3EFEFC36
:101DC600FEBBFE99F679F678F657F615EDD4E5934F
:101DD600DD52CCF1B48F8BCE632C424A298719058C
:101DE600190519052125210420E420E4290418C336
:101DF600084118C41083108310831083088210A52D
:101E0600218C1A3202DA64BC8D3C027B0ADC12DCBD
:101E160012DC12DC12DC12DC12DC12DC12DC0ADC54
:101E260012DC12DC12DC0ADC12DC12DC12DC0ADC4C
:101E360012DC12DC12DC0ADC0ADC0ADC0AFC0ADC34
:101E460012DC12DC12DC12DC12BB1A9A22142148B4
:101E560010C310A410A3108310A31082086210826E
:101E66001082108210A220C341C65228624883AF56
:101E76003A09002108413966290441C7730C83CE0B
:101E86006AA8622672888B8CA44EBCB0CD12DD7314
:101E9600DD94DDB4DD94DD94CD54C514B492B4B2B2
:101EA600B492B4D2C535D596EE39F6BCF71DFEFC14
:101EB600FEDBF69AF679F658F636EDF5E5B4E573F7
:101EC600DD32CCD0B44F8BCD630C424A29872167D3
:101ED6002967212618E4210418E418A320C320E466
:101EE600108220E41062106218A3086210631907BA
:101EF600218B1A5402BA6CDC8D3C027C12FC12FC5B
:101F060012FC12DC12DC12FC12FC12FC0ADC0ADCEB
:101F16000ADC0ADC0ADC0ADC0ADC0ADC12FC0ADC63
:101F260012DC12DC0ADC12DC0ADC0ADC0AFC0ADC43
:101F360012DC12DC12DC12DB1ABA12DB2275214823
:101F46000882108310A318A310A31082108218A36E
:101F560010A218C320E341C652276ACA72A9832B6E
:101F66006ACB290429043145530D7C1162CB7B6D64
:101F760072C972A87AEA8BACAC4FC4D1D533DD7482
:101F8600DD94DDB4D573C512B49193CE730B72EBA9
:101F960062AA62AA6ACB730C93AFA431B4D4C535D6
:101FA600D5B7E639F659F658EE36EDD4E593DD5257
:101FB600D512C4D0AC4E8BCD5AAA3A0929A7298787
:101FC60021462146212510A3292518C420C318C35C
:101FD600108218C31083084210A3108210A5194A54
:101FE60019481255029A6CBC853C027C12DC0AFC2C
:101FF6000AFC12DC12DC12FC0AFC0AFC0AFD0AFDD1
:102006000AFD0AFC0AFC0AFD0ADD0AFD0AFC0AFCB6
:102016000ADC0ADC12DC12DC0ADC0ADC0ADC0ADC7A
:1020260012DC12DC12DC12DB12BA1ADA2277194839
:10203600108310A3108318A31083106210821882D5
:1020460018C22904522862A86ACA7B4B83AD8BAE9C
:102056008B8E7B4D834D83D0B5999CD45A4893CFB4
:10206600836C72E972EA93ADB490CD12D573DD94A8
:10207600DDB4DDB4D553BCB0A42E93AD8B8D7B0BF4
:102086006ACA5A895A4849E852495A4972CB72EC87
:102096007B2D93F0C514E5F7EE16E5D4DD73DD521E
:1020A600D512C4B0AC2E838C5AAA31A7298729A889
:1020B6002166212521460862212520E418A318E37C
:1020C60010A210A310A3086210A3108218E7196AC1
:1020D6001929129702B96CBC853C027C12FC0AFCD9
:1020E6000AFC12DC12DC12FC0AFC0AFC0AFD0AFDE0
:1020F6000AFD0AFC12FD0AFD0ADD0AFD0AFC0AFCBD
:1021060012FC12DC12DC0ADC0ADC12DC12DC0ADC51
:1021160012DC12DC12DC12DB12DB12DB22361906B1
:10212600108310A318C418C41082106218C220C3EA
:10213600290449E8730B838C8B8D8BAD93CE9C0F52
:102146009C30A430B471B4D4AC51834C6207AC92C9
:10215600940E7B2A7B2A9C0EBCF1D574E5B5E5D599
:10216600E5D5DD94D533BCB0B46FAC4FA42FA40E27
:102176009BCD93AD9BCD93AC93ADA410B472B492AA
:10218600AC728B8E7B4DA450DD95E594DD73DD53EB
:10219600DD32CCF0B46E836B526931A7298729876B
:1021A600214621462125106218C318E418A318C336
:1021B600108218A318A310621062084110E6198B4A
:1021C600194B0AD902B96C9C853C027C12DC12DCE4
:1021D60012FC12DC12DC12FC0AFC0AFC0AFC0AFCE9
:1021E6000AFC0AFD0AFD0ADD0ADD0AFD0AFD0AFDF2
:1021F6000AFD0AFD0ADD0ADC12DC12DC12DC0ADC4E
:102206000ADC12DC12DB12DB12DC12DA22322127A4
:10221600108310A4210518C41062108218C328E385
:1022260049E8628A8BADA42EA40F9C0F93EE8BCE49
:102236009C0FA450AC71B4B3A452A451938DB4B204
:10224600940F7B4B8B6CAC90CD73E5D6EE37EE37A7
:10225600EDF6DDB4CD32C4AFBC6FB44EAC4EAC4F70
:10226600B44FBC90C4D1CD12D533DD74E5B6EDD7ED
:10227600EE39DDD7BCB38B6DA430D574DD73DD5379
:10228600D532D511BC6F834B5228316629882987F0
:10229600296731A8294618A310A318C418A318C380
:1022A600108210A3292510820862084210C621ADAB
:1022B600116C0AFA02B96CDC853C027C12DC12FC59
:1022C60012DC12DC12DC12DC0AFC0AFC0AFC0AFC38
:1022D6000AFC0AFD0AFD0AFD0ADD0AFD0AFD0AFDE1
:1022E6000AFD0AFD0ADD12DC12DC0ADC12DC12DC55
:1022F60012DB12DC12DB0AFC12DB1A782A3319070E
:10230600108318C4210518E4106218A3290439861D
:102316005A6A832BAC2FB490B491AC509BEF9C0FB0
:10232600A450A450A430A451AC71AC51AC71AC71A2
:1023360093CE8B6C9BEEC512DDD6EE78F699F678C9
:10234600EE17DDB4CCF1BC6EAC0DA3ED9C0D9BEE8F
:102356009BCEA3EEBC91D533E595E5B5EDD6EDF76D
:10236600F639F659EE18C51493AEC4F2D573D532C4
:10237600D532D532BC90836B4A2829252146298738
:10238600190531A7292610A310A318C318A318C32B
:102396001062108220E410A21082086210C6198C06
:1023A60011D00B1A02B96CDC853C027C12DC12FCE3
:1023B60012FC12FD12FD12FC0AFC0AFC0AFC0AFCC5
:1023C6000AFC0AFD0AFD0AFD0AFD0AFD0AFD0AFDD0
:1023D6000ADD0ADD0ADC12FC12DC0ADC0ADC12DC8D
:1023E60012DB1ABB12DC12DC1A9A22582A1318C402
:1023F60018A318E5210518E4108229053945520865
:102406006ACA9BACBC50C4B1C4D2B471AC70B491AE
:10241600B491AC91AC72AC92A492ACD3ACB2A470B1
:102426008BAD93ADB490D594EE58F6FBF6DBF6790A
:10243600EE37DDB4C4D0AC0D9BAB938C832B7AA95D
:1024460072A972A9832BA3EFCCF2E5B5EDF6EDF7F1
:10245600EE18F638F638E5D7C4F2B490CD12D55258
:10246600DD52D532C4B0836B41C720E310C42105C9
:1024760020E4210529261082108218C318A318A368
:10248600106210A318A310821082084110A5196AC1
:102496001A550B1A02B96CDC853C029B12DC12DC65
:1024A60012DC0AFD0AFD0AFD0AFC0AFC0AFC0AFC0B
:1024B6000AFC0AFC0AFC0AFC0AFC0AFC0AFC0AFCE6
:1024C6000ADC0ADC0ADC12DC12DC0AFC0AFC12DC7E
:1024D60012DB12DB12DB1A9A22571A752A111927F8
:1024E60018C318C410A318C32104290439666A8ABC
:1024F6008B4BABEDBC6FC4D1C491BC91C4D2BCD2E2
:10250600BCF2BCF3B4B2ACB2BD14ACD2A47093EEC0
:102516008B8CA3EDC512E616F6DBFEFCFEBAF69929
:10252600EE57E5B4C48EA3CB8B4B7ACA62285228E9
:102536003185292441A7732F9412A3F0D534EDD504
:10254600EDF6EDF7EE18E5F7D595C512CD12D55295
:10255600DD52D532C4B0834A3145108318C42145B3
:10256600210418A419051061108218C318C3210488
:10257600108218C318A31083086208421083196DCD
:1025860012FA0B1A02BA6CDC853C029B12DC12DCD6
:1025960012DC0AFD0AFD0AFD0AFC0AFC0AFC0AFC1A
:1025A6000AFC0AFC0AFC0AFC0AFC0AFC0AFC0AFCF5
:1025B60012FC12DC12DC12DC12BC12DC12DC12BBC6
:1025C6001ABB12DB1ABB1A782278227721CE210594
:1025D60018A310A318C421042924314549E87AEB2D
:1025E6009B8CB3EEC490C490C471C4B2CCD2CD134C
:1025F600CD33BCD2BCD3BD13BCF2AC709C2E8BAD1C
:1026060093ACB48FDDB4F679FF1CFEDBF699F69930
:10261600EE77DDB4C48EA3AB82A9726A5AAC5B0FA7
:1026260021050041210552AB39C75AAB834DC4B1D0
:10263600E5B4E5D6EDD6E5F6DDB5D553D532D552BA
:10264600DD52D532C4B07B09292510621083294694
:1026560018E418A418E4086110A318C320C318C30B
:10266600086110A318C318A30862086110831255E5
:102676000B1A0AF902BA64DC853C027B12DC12DC16
:1026860012DC12DC12DC12DC0AFC0AFC0AFC0AFC74
:102696000AFC0AFC0AFC0AFC0AFC0AFC0AFC0AFC04
:1026A60012FC12DC12DC12DC12DC12DC12DB1ABBAE
:1026B6001ADC1ADB22982276223421CD29AB212678
:1026C60010A310A321042945312441866ACB8B0B24
:1026D600ABADBC0EC44FC470CCD2CCF2D513D5135F
:1026E600C4F2C513C514BCF3AC909C0E93CD8BAC51
:1026F600A40EC511E616F6DAFEDBF6BAF6B9F699B9
:10270600EE58DD93C4D09B8C8B0B82CB8C757C549E
:102716001882084118E32125294641E9526972CBFE
:10272600BCB0DD74E5B5E5B5DD94D573D553DD52A2
:10273600DD52D511BC8F6AA918A30842086218C3D6
:1027460018A3108318E4086210A318A318A318A3EB
:10275600086110A318C418C308620862110812FAA7
:102766000AFA0AFA02BA64BC853C027B12DC12DC65
:1027760012DC12DC12DC12DC12FC0AFC0AFC0AFD7A
:102786000AFD0AFD0AFC0AFC0AFC0AFC0AFC0AFC11
:1027960012FC12DC0ADC12DC12DC0AFC0AFC12DC7B
:1027A6001AB922342A11225321F12A342A31214717
:1027B60018A318C3316631453125520872AA934BC6
:1027C600ABCDBC0EBC0FCCB1D4F2D513D4F3CCD266
:1027D600CD13CD33C513B4919C2F93CD8B8C93CC55
:1027E600B46FDD73F678FEDAFEBAFEBAF6DAF6DA1A
:1027F600EE7ADDD6CD34AC919BAD934CA4729CF6AB
:1028060031E9086220E418E46BB28CB629665228D6
:102816008B0BCCD1DD53DD73D574D574DD73DD73CD
:10282600D552CCF1B46E5247106208421062108342
:102836001062106218A3106210A318A3108218A3C6
:102846001061108218C418A308820841116D131B69
:102856000AF90B1902BA64DC853C027B12DC12DC35
:1028660012DC12DC12DC12DC0AFC0B1D0B1D131D24
:10287600131D131D131D131D0AFD0B1D0AFD0AFC56
:102886000AFC12DC12DC12DC12BB12BA1A982234D1
:102896001A12225522992A78229722972A502147DE
:1028A60018C429253186316641A762897ACAA38C64
:1028B600B3EEBC0EC44FD4D1D4F3D513CCD2D513BA
:1028C600D533CD12BCD1A44F8BCD8B8C8B8CA40D64
:1028D600CCF0EDF5F6DAFEB9F699FEB9FEFBFEFB95
:1028E600F6DBE67AD5B7BD15B492A4319BAFA43119
:1028F60094315249528B7C54BE3DA539628A49A611
:1029060082EBB42ECD11D553DD73DD94DD94DD73EA
:10291600D532CCD1A40D39A508420841084210820F
:10292600106208621082106218A318C318A320E46C
:102936001062108218C418A31082084119F10B1AEC
:102946000AFA0B1902BA64BC8D3C029C12FC12DC1A
:1029560012DC12DC12DC12FC0AFD131D131D133DE2
:10296600133D133D131D133D0B3D133D0B1D131D51
:102976000AFC0AFC12DC12DA1AB91A981AD912FCE5
:102986001AFC22DA2279227622B722B72A0D2105ED
:102996002124210439A739A752286A89932BA38CAD
:1029A600ABCDBC0FCC70D4B1D4F2D4F3D533DD3378
:1029B600D533C4F2B4709BEE838C8B6B9BCDBC6F0E
:1029C600DD73F678FEFBF6B9F698F6B9FEFBFF1C4A
:1029D600F71CEEDBDE19CD77BCF5B493B493BCD40B
:1029E600B472B492C556D5B7C4F3ABEF8B2C7B0B40
:1029F6009B6CB44ECCF1DD53E594E594E594DD741F
:102A0600D532CCB18B8C210408210821084110A3B2
:102A160010831062108308421082108310822104F2
:102A26001082108318E41083108210A412940B1ADB
:102A36000AF90B1A02D964DC853C029C12FD12FCD1
:102A460012FC12DC12DC12FC131D131D131D133DA8
:102A5600133D133D133D133D133D133D0B1D131D38
:102A660012DC12DC12DC12DB12DC12FC12FC1ADAAB
:102A76002A7822B922B82AD822B62A52320B2946F7
:102A860021042925422A41C852286A89932CA36C1D
:102A9600ABCDC42FCC70D4B1D4D2D513DD54DD3434
:102AA600D513C4D1A42F8B6C834B938CAC2ECCF056
:102AB600EE16FEDBFEDAFE98F698FEB9FEFBFF1C6C
:102AC600FF1CF6FCEE7ADDF8CD77C515B4B4B4B4C8
:102AD600C535D5B8CD55D556CD14BC92A3EFA3EFC9
:102AE600AC0FC4B1D532E594E594E594E594DD7375
:102AF600D532BCB06ACA10A308410821084218A3FF
:102B060018A3106210830841108218C4108218C3DB
:102B16001062108320E418A310A210E612B70B1A55
:102B26000B1A0B1A02D96CDC853C029C12FD12FCB6
:102B360012FD12FD0AFD12FD0AFD0B1D131D133DAC
:102B4600133D133E131D131D131D131D131D131DBE
:102B56000AFC0B1D0B1D0AFD12DC12DB1ABA2298A9
:102B66001AD822D922D82AB42A522A2F2A0A294622
:102B760018E33187424A4A085A077ACA934CA36C2B
:102B8600ABCDBC2FCC70D4B1D4F2DD33DD53DD54E4
:102B9600CD13B49093AD832B8B6BA40DC4AFDD9393
:102BA600F678FEDAFEB9FE98F6B8FED9FEDAFF1C14
:102BB600FF3DFF3DF6BCE639DDD8D576C515C4F533
:102BC600CD14D555DDB6E596DD96DD75D575DD9565
:102BD600DD75DD74E594E5B4E5B4E5B4DD94DD5367
:102BE600CCF2AC6F52491083004108410841108273
:102BF600108310621083084218A318C318C310A3C9
:102C0600106210A318A31083088210E612D90B1ABB
:102C16000AFA0B1A02BA6CDC8D3C029C12FD12FCFD
:102C260012FD12FD0AFD0AFD0AFC0B1D131D131DE4
:102C3600133D133D131D131D12FD131D131D131DEF
:102C4600131D131D131D12FD12FC12BB229922B96E
:102C560022D922D62A5222952A723271324E29A9B7
:102C6600210431A8422A4A085A287AEA8B2B9B8CDF
:102C7600ABEDBC2EC44FCC90D4D2DD33DD53D5336F
:102C8600C4B19BEE8B6C8B4B93CCB46FD532EE16E6
:102C9600FEB9FED9F698F698F6B8FEB9FEFAFF1C0C
:102CA600FF3DFF1DFEDCF67AE618DDB7D597D57732
:102CB600D576D575DD96E5B7EDF8EE39EE59F658C9
:102CC600F638EE16EE16EE15E5F5E5B4DD74D532FA
:102CD600C4D18BCD31A6108308410841086110820A
:102CE600106210831083106218A310A220E418A3A8
:102CF60010821083108310830862112812FA0B1AAF
:102D06000AFA0B1902BA6CDC8D3C029C12FD12FC0D
:102D160012FC0AFD0AFD12FD0AFC0B1D131D133DD4
:102D2600131D131D131D131D131D131D131D131D1D
:102D3600131D131D131D131C1ADA1AD91ADA1AFADF
:102D460022D82A7322962A742A512A532A722A2EA4
:102D5600212531874A4A52285A487ACA8B2B9B6CBE
:102D6600A3CDB42EC44ECC8FD4D1DD33DD33C4D144
:102D7600A3ED8B6C8B6C8B8CA40EC4D1E594F6788A
:102D8600FEDAF6D9F698FE98F6B8FEB9FEDAFEFC3B
:102D9600FF1DFF1DFEFCF6BBEE5AE5F8DDD7DDD7BD
:102DA600DDB7DDB7E5D7E618EE59F67AFE9AFE9A54
:102DB600F679F658EE57EE36E615E5B4DD73CD1224
:102DC600B490732C212508620841084108411082FD
:102DD600106218831062108318A3108218C318A3F8
:102DE60010A31083108310821082198C0B1A0AFA12
:102DF6000B1A0B1A02BA6CDC853C029C12FC12DC24
:102E060012FC0AFC0AFC12FD131D131D131D133DB3
:102E1600131D131D131D131D131D133D133D131DEC
:102E2600131D131D131D1ADB1ADB1AFB1AFB22B71F
:102E36002A722AB732962A7122B522D922D922724B
:102E4600210431A6526B4A08626972CA8B0B936CD5
:102E5600A3CDABEDC44ECCB0D4F1D532C4D1A3CD05
:102E660082E9830A8B6C93ADB46FCD32EDF6F6DA58
:102E7600FEFBF6B9F698F698F698F698FEB9FEFBBC
:102E8600FEFCFF1CFEFCF6DBF69BEE39E5F7E5D70C
:102E9600E5D7E5F8EDF8EE39F65AF69AFE9AFE9A77
:102EA600FE79F678F657EE36E5F5DD93D532C4F1C0
:102EB600A42F522810A30862084108410861108314
:102EC600108318A310421062188218A3210418A3B5
:102ED60018A310831083108310A312110B1B0B1958
:102EE6000B1A0B1902DA6CDC8D3C029C12FC12FCEC
:102EF60012FC12FD12FD131D131D133D1B3D133D48
:102F0600133D133D133D131D131D133D135D133D5B
:102F1600133D1B1D1AFC1AFB1AFC1AFB22D822B6FB
:102F26002AB82A932A9122F91B5D22F922FB222F25
:102F360029444229422A52295A6972A9830B934C81
:102F4600A3ACB3EDC44FCCB0D4F1CCF1B44E8AEA05
:102F560072677AE98B2A9BACB490D573EE16F6DBD2
:102F6600F6FCF6B9F678F657F657F657F698FEDAFF
:102F7600FEFCFEFCFEDCFEDBFE9BF65AEE18EDF8D0
:102F8600EDF8EDF8EE18F639F659F67AF69AF69A5D
:102F9600F679F658F657EE16E5D5D573CD12BCB1CF
:102FA6008B8D294508620862084108410861108234
:102FB60010A318A31062188318821882210418A37C
:102FC600210518A318A3108310C512540B1A0B1A47
:102FD6000B190B1902DA6CDC853C029C12FC12FC04
:102FE60012FC12FD12FD131D133D1B5D1B3D1B3D07
:102FF6001B5E133E133D133D133D133D133D133D21
:103006001B3D1B1C1B1C22FC1B3B22D922D92AB6AA
:103016002A912AB51B3C135E1AFB1AFA2AD829EB09
:1030260039E839C84A4A52495A4872A9830B934C1F
:103036009BACB40EC46FCCB0CCD0C48FABED82C900
:103046006227622762078B2AB46FD532E5D5EE5721
:10305600F698F697F677F677F657F636F657F6B900
:10306600F6BAFEDBFEDBFEBBFE9AFE7AFE59F639A9
:10307600F618F618F638F658FE59FE79F699F699C6
:10308600F679F658F637EDF6DDB4D532C4D2AC7122
:10309600524910A21082084208410841106218A342
:1030A60010831083106218A318A3188318C318A3DB
:1030B60020E418A3108310A3196A12D70B1A0B1A4F
:1030C6000B1A0B1902DA6CDC853C029C12DD12FD30
:1030D60012FD12FD12FD131D133D1B5D1B5D1B3DF5
:1030E6001B5D133D133D133D133E135D133D1B3D09
:1030F6001B3D1B1C1B3C1B1D22F922B72AB52A951A
:1031060022D9235D1B5E1B1D1B1C23192AB529EB27
:1031160031872988526B5249626972CA830B936C54
:103126009BCDB42EC48FC4D0C4B0BC6FA3ED832A8C
:1031360062274144390459E69BCCC4B0D532E594A4
:10314600EDF5F635F677F698F698EE16EE16F6588D
:10315600F699F69AFEBAFE9AFE9AFE7AFE59F63964
:10316600F639F638F638F658FE59FE79FE79F679CC
:10317600F658F658EE16E5D5DD73CCF1B491836DAD
:10318600294510A20862084208410841106218A3A6
:10319600188310821083108318C418A318A318A2CA
:1031A60020E320C418C318C419CF12F90B1A0B1A3E
:1031B6000B1A0B1902DA6CDC853C02BC12FD12FDFF
:1031C60012FC12FD131D131D133D133D133D131D5C
:1031D600133D133D133D133D1B3D1B3D133D133D59
:1031E600131D1B1D1B3C22FB22D92A962AB822FC42
:1031F6001B5D1B5D1B3D1B3C2319231A2AD6320976
:10320600298831A8528B5249626972EA832B938CC2
:103216009BCDAC2EBC6FC4AFBC8FB46EA40D8B6BB4
:103226006A8849A5412541246A68A3CDB46EC4B015
:10323600C4D0D532EE16F657F657EE16EDF5EE1665
:10324600F658F679F679F679F679F659FE59F63999
:10325600F659F658F658F658FE59FE59FE59FE58D4
:10326600F638F637EDF5E5B4D532C4B1940F4A27F2
:10327600210410620842084208410841108318A33D
:103286001883108310A310A318A318A318A318A3B8
:1032960018C320E418C219061A530B1A0B1A0B1A74
:1032A6000B1A0B3A02DA6CFC855C029C12FC12FCCF
:1032B60012FD12FD12FD12FD131D131D133D133DCC
:1032C600133D133D133D1B1D131E131D131D131D0F
:1032D600131D133C131B1AFA2A9722B91B1B1B5DDD
:1032E6001B5D1B5D1B3D1B1A1AFA233B2A4E29EA5E
:1032F600214639C8528C526A628972EA832B938CB2
:103306009BEDAC4EB46EB46EB44EAC2D9BEC8B8B79
:103316007B0A6A6862276227726883299BCCAC2E77
:10332600A3CC82C9B40EE5B4EDF5EDD5EDD5EDF53A
:10333600F616F658F638F638F638F638FE39FE3907
:10334600FE39FE38FE38FE38FE38FE58FE58F6388E
:10335600F617F5F6E5D4DD53CCD1AC4F62EB31254B
:10336600106208410842084208210842108310A34F
:10337600108318A3108318A320E418C420E420C3E4
:1033860020E4210410A318E61A960B1A0B1A0B193F
:103396000B1A12F902DA6CFC855C029C12FC12FC18
:1033A60012FD12FD12FD12FD131D131D131D131D1B
:1033B600131C133C1B1D22D822F912FD12FD12FC10
:1033C60012FC131C131C22B722BA1AFC1B3C1B5DF1
:1033D6001B3D1B3C231B22FB231B32F62188214766
:1033E600292531C84A8B526962897B0B8B4C9BAD70
:1033F600A3EDAC2EAC2EA40DA40DA40D93EC93ACB2
:103406008BAB8B8B93ACA40DAC2E9BECAC2ECD3240
:10341600D553A3AC8AA8C46FDD32E594EDD5EDD5BE
:10342600EDF6F616F617F617F617F617F618F63837
:10343600FE38FE38FE38F638F638F638F637F63700
:10344600F617F5F5E5B4D512BC907B6D39A620C309
:10345600188208621062086208211062108318A39D
:1034660010A318C3188318A318C418E418C321049A
:1034760020E320E318C4196B1A980B190B190B19C2
:103486000B1A131A02DA6CFC855C029C12FC12FD04
:1034960012FD12FD12FD12FD131D131D131C131C2C
:1034A600131C12FD1B1C42F17B505B5622FB0AFDCE
:1034B6001B1C1AFC22BA229A12FC131C131D1B1C7D
:1034C6001B1C22FB22DA22BB32F721EE192420E450
:1034D600210431A74A6B524A6AAA832C938D9BED2D
:1034E600A40EA40D9BCC938B93AC93CC93CC93CC92
:1034F6009C0DAC4EC4D0D593D594C512CD32E5D52E
:10350600E5F5DD53BC4FC46FDD33EDF7F637EDF669
:10351600EDD5F5F6F5F6F5F6F5D6F5F6F5F7F61872
:10352600FE38FE38F638F618F618F618F617F617B7
:10353600F616EDD5DD53CCD293EE62C95A6841E753
:103546002904106208620842082110821083108341
:10355600108318A318A320C418C3210418C320E499
:1035660020C318E3212519CE12B8131A0B190B1A0A
:10357600131A0B3A02FA6CFD8D5C02BC12FD12FDA9
:1035860012FD12FD12FD0AFD12FC1AFC12FC12FCC1
:10359600131C231B22D84AD26AF083717352331A42
:1035A60012DC22DB1ADA12FC131C131D131C1B1C63
:1035B60022FB1AFA1AFB2B192A511946192518A4A7
:1035C60020E429454A0A524A6AAA834B9BCDA42E77
:1035D600AC4E9BCC6A8859E67AC97B0A8AEA932B59
:1035E600A38CBC0EDD32EDF6E5D5D553DD94EE1693
:1035F600EE36EE16EE16EE37F679FE79F678EE161C
:10360600EDD5EDD5EDD5F5B5F5B5F5D6F5D6F5F798
:10361600F618F618F618F617F617F5F7F5F7F5F79C
:10362600EDD5E594D512B46F8B8D832A628941A6B8
:1036360028E418831062084208421883188310830E
:10364600108320E420E320E318A3212420E420C3F0
:1036560018A318E32125220E0AD8131A0B1A0B1ADF
:10366600133A133A031B651D8D5C0ABC1B1D12FD24
:1036760012FC12FC12FD333A5BB86BD763B953B92F
:103686003B572A2E19AB31EA8C54A4B57B6F8B902D
:103696005B78231B231B2B3A2B3A1B1C12FC1B1C8F
:1036A6001AFC1AFB2AF72A0D212718C310A410A307
:1036B600212518C339C852696AAA834B9BEDAC4EC3
:1036C600AC4F9BCD51E610623904616579C68227FD
:1036D6009268A2A9CBCDED73E5D4E5B4EDF5EE364F
:1036E600EE36EE56F677F678F679F679F658EE1661
:1036F600EDD5EDB4EDB4EDB4ED94EDB5F5D5F5F746
:10370600F618FE18F618F5F7F5F7F5F7F5D6EDB550
:10371600E594DD33C491A44FB4B193AE6B4D5228FA
:103726003924310418A3082108421883188318A3E2
:1037360010832925210418C320C42105210518A3B7
:1037460020C320E41927223112F80B3A0B3A0B5A00
:103756000B5A0B5A033B6D1D8D5C0ABC1B1D12FDDB
:1037660012FD12FD32F99434ACD6ACF7ACD6949572
:1037760052CD298821682967CDF9E65AC577ACD597
:10378600A4B58C7584549454A495947443781AB94A
:103796001A75322F31A818E418C3088210830882DC
:1037A60029251062294552496AA98B4B9BEDA44FE6
:1037B600AC4F9BED6A89412530E3208228A259450A
:1037C60079E79227A228CB8CDCF2E533F5F7F637BA
:1037D600F636F636F657F657F658F678F657F616DC
:1037E600EDD4EDB4ED94ED94ED94ED94F5B5F5D6F8
:1037F600F5F7FDF7FDF7F5D7F5D6F5D6EDB5ED748A
:10380600DD53C4F19C0FAC8FBCB0A3EE7B0B6A6991
:1038160051C7392410410021108218A218A318A3F9
:1038260010822925294620C320E42946212518C3CC
:1038360018A218E321881A5213390B7A0B7A0B5AFD
:103846000B7A0B7A033A6D1D8D5C0ADC1B1E1B1D61
:103856004B5863B773F39C34A474A495A4959C3316
:10386600632F739073B15AEEAD16D5FABD37AD1608
:10387600ACF6ACF5B536BD56B515BCF3ACD452AC0A
:10388600214531A710A318C4088208820883108333
:103896002946106218C352286A89832B9BEDA42EF1
:1038A600A42E93CD7AC961C782297A083903188272
:1038B600312461A679E7A248BAEAC32ADC4FEDD6DD
:1038C600EE57F656F657F637F637F657F637EDF65D
:1038D600EDD4EDB4EDB4ED94ED94ED74ED94F59571
:1038E600F5B6F5D6F5D6F5B6EDB5ED94E574DD335A
:1038F600CCF29C2F39A641A56A677AEA72AA5A07C2
:1039060031040841002008211082188218C3108251
:10391600108229253187292529252125296718A3DC
:1039260018C4192629AA1A7313590B7A0B7A0B7B1A
:10393600139B0B7A035B6D1D8D5C0ADD1B1A73D519
:10394600B4D5BD17B4F7B4F7BD17BD38C558C517FC
:1039560042B03A6E52ED6B6F8C11A493BD16B557FB
:10396600B516BD36CD77CDB8D5D8CD97C535ACB261
:1039760062CB18C310A3108308610862086210A303
:1039860018E40862108241A66A69830A93CC9C0EE9
:103996009C0E93AC72E961E77A28B2AAC2EB8A2838
:1039A6005145418651E772089248A268BAC9D40FB8
:1039B600EDB6EE36EE57F637F637F637F636F61537
:1039C600EDF5EDD4EDB4ED94ED94E573ED74ED9570
:1039D600ED95F5B5EDB5ED95ED74E573DD33CCD22A
:1039E600AC7041E700000000000010611082084141
:1039F60000200021004108411082108218A318A35C
:103A060010A33187296629052925318629662104CF
:103A16001926216821AA1AB5133A0B7A0B7B0B7B60
:103A26000B7B0B7B033A651D855C02BC4AF3A474D1
:103A3600BD38BD38BD18BD17BD17BD37CD78B51714
:103A460032D22AD32A8F2A6E2A4D326C5B0F9CB54E
:103A5600C577C577CD77D5D9E65BE63ADDF8BD34CF
:103A6600A49262CB2125086208611082108220E4AC
:103A760010A310620862292562487AEA8B8C9BEDB6
:103A86009BED93AC7B2A6A4879E7A269C2CBD30B3C
:103A9600C2EA9A6969E751C76AAA7ACC9269AA8981
:103AA600CB8CE553EE16EE16EE16EE16F616F6155A
:103AB600EDF5EDD4EDB4E594E573E573E554ED74F9
:103AC600ED74ED74E574E553DD53DD32CCF2B4915B
:103AD60062AA0040080000210821002000200021E1
:103AE60000410841004108211082108220C418C4F8
:103AF60010A33A09298720C42905318721462126A2
:103B06002167216929A91AB6133A0B7A0B7B0B5B3D
:103B16000B5B0B5B031A6CFD855C22756B2F941394
:103B26009C34AC95ACB5A4949C7483B1628B5B0F4A
:103B360033143B7643973B343B3443954BB68C97D3
:103B4600CD98CD98CD98DDD8E63AE65AE639DDD758
:103B5600D576B4F48BEF39A60841086210A3210488
:103B660018A30862086210A251E772C98B6B93CD45
:103B76009BED93CD8B6B7AA879E79248BACACAEBCC
:103B8600D34CDB8DDB6CB32B7A8A6AAB51E861864A
:103B960089C6BB0ADD12E5B4E5D5E5D5EDD5EDF56B
:103BA600EDF4EDD4E5B3E593E553DD33DD33E533ED
:103BB600E533E533DD13DD12D512CCD1B4B07B8D00
:103BC60010A20000082108210821084108410841E7
:103BD60008410020002108411062108318A320E448
:103BE60018C439E831A720E4290529452146298644
:103BF600218A218929671AB5137A0B5A0B7B0B5B2D
:103C06000B5B135B031A6CFD95374A8E6B4E83B1C3
:103C1600B495CD58CD78C558B5168BD141C7320C61
:103C26003B964BF97D3D859E7D9E751E5C3A94774D
:103C3600C557C577CD97CD97D596DDD7DDF8E5F88D
:103C4600E5F8D596C514ACB16AEB18C3086210A3A3
:103C560018A3084208620841416572888B2B9BCCE9
:103C6600A3ED9BED93AC8B0A82888A27AA89C2EBC7
:103C7600CB2BD38CE40FEC70DBCEBB0B9269596572
:103C8600512471448A68B40ECD12DD74E594E5B40E
:103C9600EDD4E5B4E593E573DD52DD32DD12D512E0
:103CA600D4F2D4F2D4F1CCD1C4B1B4908BEE2104C9
:103CB600002008210821082108210841084108415F
:103CC60008410841084108410862106218A318E437
:103CD600210431C831C8210531462945296629EB19
:103CE60029EC198A29A82294135B0B5A135A0B5AEA
:103CF6000B5A0B5A02D96CDCA53552AD7B909C331E
:103D0600BCF6D59ADDDBD5DBBD588BF249E9328F9F
:103D160043B75C7DB69FE7DFC73F857E5C39B53923
:103D2600DE1ADDF9DE1ADE19DDF8DDB7DDD8DDD8FD
:103D3600DDD8DDD7DD96CD54CD349C5039A6108222
:103D4600106210831083004120C26A47830A9BAC2D
:103D5600A3EDA40D9BED936B8B098AA89A68B2A973
:103D6600C2CACACAD3CEE555E4F3E3EFE3EEDBAE4F
:103D7600C30BA26979A661659B4BD511DD73E593EB
:103D8600E5B3E593E593E573DD53D532D512D4F269
:103D9600CCD1CCB1C4B1C4B0B4909C2F39C60020EC
:103DA6000821084108410821082108410841084125
:103DB60000210021084108620842108218C318C376
:103DC600210539E831A721042945294629A8225287
:103DD6002A2E21EE2A0C2294133A0B5A133A133A3E
:103DE6000B3A0B3A02D96CDCB5B883B2A433B4B53E
:103DF600C537D59AD5BACD79ACF77B6F4A09433327
:103E0600541BA61EF7FFFFFFDF9F7D5E647ACDDAA7
:103E1600EE5BE63AE63AE65BEE5AEE5AE639E5F846
:103E2600DDD8DDD8DDB7D596D575D554BD1372EB83
:103E36001082108318C30061086151C682A9936B72
:103E4600A3EDA42EA42DA3ED9B8B9B4B930A9AC89E
:103E5600AA89BAA9CB0BD36DDC10DBCFDBCEDBAEE8
:103E6600DB8DDBADCBEFABEEA3ADC4D0DD52E5937E
:103E7600E5B3E5B3E593E593DD73DD32D512CD12F7
:103E8600CCF1C4D1BCB0B4909C2F4A27004100416C
:103E9600084108410841082108210841002108413C
:103EA60008410020086220E40862108218A318C4A2
:103EB600212539C831A821052125294621CA1A9567
:103EC600226E22302250229313390B5A133A131AB8
:103ED6000B1A131902B96CDCCE39A474ACB5BCD676
:103EE600BD16BD16BCF6ACB58BD15A2A39C843757A
:103EF600AE5EFFFFFFFFFFFFFFFFA63E749AD61BD5
:103F0600EE5BE63AE63AE65BEE9CEE9BEE7BEE5A1D
:103F1600E639E619E5F8DDD7DDB6D575D554CD53C6
:103F26008BAD318618A308410862392472488B4A42
:103F3600A3EDAC4EB44EAC4EAC0DABEDA3AC9B6A50
:103F46009AE9A2A9B2C9BAA9C2EBC30BCB2CCB8DF5
:103F5600CBEED44EE4F1DD94CD52D511DD52E5938E
:103F6600E5B4E5D4E5B4E593DD73DD52D532CD1184
:103F7600C4F1BCD1B4B0A44F52680841084108410D
:103F86000841084108410821082100210020082194
:103F960008210821108218E4086210A318C318C467
:103FA600318639C839C82105210531A8224F12D7D3
:103FB6002A8F2A502250229313190B3A131A0B1ADE
:103FC6000B1A12F902B96CDCDE7AB4B5B4D4B4B407
:103FD600AC749C1193D08BD093F193D16B0E7C353E
:103FE600A57BB65DCEFEE77FF7FFD73E8CDBE63CD2
:103FF600E63ADDF9DDF9DE1AE63AE63AEE5AEE3A47
:10400600EE5AEE3AE639E619E5D8DDB7D595D55438
:10401600D554B4B24A2810411062188261E78B0A5F
:10402600A3EDBC6FBC8FBCB0C48FBC6FBC4EB40DCF
:10403600ABCCA3ABAB8BAB6BB38BC3CCC42ED4CF07
:10404600DD51DDB3E5D4E5D4DDB3DD72DD72E59394
:10405600E5B4E5B4E5B4DD93DD52D532D532CD1104
:10406600C4F1B4B19C6F526810620841084108411E
:104076000841084108410821082108410841084132
:1040860008210821108218C3108318A318C421051B
:1040960031A7296631A82946314631EA22B41AB831
:1040A60022702271229222941AF90B1A12FA0AF934
:1040B600131A131902B96CDCDE7AB4D5B494A4329F
:1040C6008BB0836F93D1A452C4F6DD9ADDDADDD9C5
:1040D600D5DBCE3DC63DC65DC65DCEBDA55AD599DE
:1040E600D598D5B8DDD9DE1AE63AE639E63AE63AA3
:1040F600E639E639E639EE39E619E5F8DDD7DDB613
:10410600DD76D575BD1372EB20E3106249658AE949
:10411600ABEDBC90C4D0CCF1CCF1D511D4F1CCF13F
:10412600CCD0CCD0CCD0C4CFCCD0D511D572DD93E9
:10413600E5D3E5D4EDF4EDF4E5B4E593DD72DD7297
:10414600DD92DD92DD73DD52D552D531CD11BCF154
:10415600B4B0942F4A2808820862084208410841F0
:104166000841084108410841082108410841084121
:104176000841002010A318E410A318A320E4296620
:104186002966294631C8296629672A0D1AB712B742
:1041960022921A731AB41A951AD80B1A0AF912FA35
:1041A60012FA12FA02B96CBCD65AA4339BF28BF2FD
:1041B6009413A4B5B4D5C4D5D537E61BF67DEE7DEC
:1041C600F69EF6BEF6DFF71EEEFFE6BEE65BDDDA2E
:1041D600DDFAE65BEE5CEE7CEE7BEE7BEE5BE63AD2
:1041E600E61AE61AE63AE639E63AE63AE619E6184D
:1041F600DDF7DDB6D595CD549C0E41A620A3726899
:10420600A3CDC48FCCD1D511DD32DD53DD53E5739B
:10421600E573E593E593E593E5B3E5B4EDD4EDF405
:10422600EDF4EDF4EDF3E5F3E5B3E593DD52D531C9
:10423600D531D551D531CD11C511BCD1B4B0A4906D
:104246007BCD31A508620862086208620841084110
:104256000841084108410021084108610841084118
:104266000841004118C318C418A318C321042945DE
:1042760039E831A729862105218922501AB81AB7AB
:1042860022931A941AD51AB71AD712FA12FA12FAF0
:1042960012DA12F902B96CBCC5B893B1A474AC9425
:1042A600C517CD78CD58D578DDB9E63BEE7DF69EBF
:1042B600F6DFF6FFFEFFFF1FF71FF6FFF6DEF69EA0
:1042C600F69DEE9DF6BEF6BEF69DEE7CEE7CEE5BB2
:1042D600EE5BEE5BEE3BE65AEE5AE65BE65AEE5ACC
:1042E600E639E618DDF7DDB6D594BCD172EB51C6DA
:1042F600932ABC2ECC90D4F1DD32DD53E573E594E0
:10430600E594EDB5EDD5EDD5EDF5EE15EDF5EDF460
:10431600EDF4E5D3E5D2E5B2E5B2DD92D531D510BF
:10432600CCF0C4EFBCD0B4AFAC8FA46F8BEE5A897F
:1043360018E3002108620862086208620842084120
:10434600002108410841084108620841002108414E
:104356000841082110C310A320E4108320E421049F
:104366004A4A296631A7210529CC22B41AB81AB7B8
:104376001AB51AB61AD51AD822F612D912FA12FA9C
:1043860012DA12D902996CBCC5F8A453BCD5CD3744
:10439600D599DDB9D599DDB9E5FAE61AE61BEE3C05
:1043A600F67DF6BEF6DFF6FFF71FF6FFFEFFF6FF19
:1043B600F6DFF6DFF71FFF3FF71FF6FEF6DEF6DD48
:1043C600EEBDEE9CEE7CEE7CEE7CEE9BEE9BEE7BF9
:1043D600EE7BEE5AEE39E638E617DDD6D594A42FF5
:1043E6008B0AABACBC4ECC90DCF1DD32E552E5730A
:1043F600E594EDB5EDF5F5F5F616F615EDF5EDD416
:10440600E5D3E5B2E5B2E592DD91D551CD0FC4AF66
:10441600BC8EB46EA44E9C0E8BAD62C92944084175
:104426000821084208620862086208620841002101
:104436000841084108410862086208410020084115
:104446000821002110A410A320E418E4210421056A
:1044560039A7296631C82146220E1AB61AD812B8CB
:104466001AD71AB71AB512F91AD712D80AFA12DADF
:1044760012DA12F902996CBCD659B493C515D598BF
:10448600DD99D599D558CD37C516CD37D578DDBA4E
:10449600E5FBE63CEE7DF67DF69DF6BEF6DFF6FF25
:1044A600F6DFF6FFFF1FFF5FFF5FF75FF73FF73FA0
:1044B600F71FF6FEF6DDF6DDF6DDF6BDF6BDF6BC5B
:1044C600F69CF69CF69CEE7BEE7AEE39E618DDD687
:1044D600CD33B42EABEDBC2ECCB0DD11DD32DD53C9
:1044E600E573EDB4EDF5F615F615EE15EDF4E5B359
:1044F600E5B2DD92DD72D571CD30C4EFBCAEAC4D08
:104506009C0D93CD732A4A27292408610020004177
:1045160008410842086208620862086208420841C7
:10452600002108410841086208410841002108416C
:104536000862084110C410A318C4210521252104CE
:104546003187296631C921681A7212D91AB712B78A
:1045560012D81AB712B70B1A131812D90AFA12DAA6
:1045660012FA12F9029A6CBCDE59C4B4CD16C517FC
:10457600C4F7CD59C559B539ACF8ACF7BD58BD58D7
:10458600C538C4F6C4D6D558DDB9E5FAEE7DF6BE13
:10459600FEDFF6FFF71FFF3FF73FF75FF75FF75FB7
:1045A600FF1FFF1FFF1FFF1FF71FFEFEFEFEFEFE83
:1045B600F6DEF6DEF6DDF6DDF6BCF67BEE5AE6381E
:1045C600E5F6DDB4CCF1B42EB40DC48FD4F0DD31F4
:1045D600DD32E572EDB3EDD4EDD4E5D3E593DD72CE
:1045E600D570D550CD10C4EFB4AEAC4D93CC836B23
:1045F60062A9316518A20841002108410821082155
:1046060008410842084208620862086208620041DE
:104616000821084108620842082108210841086269
:104626000842084118C410A3210421042987212621
:1046360031A729A731EA2A0B12940AD91AD81AB730
:1046460012DA12D71A970B1A0B391AD90AF90AF97C
:104656000AF912FA029A6CBCD619B434B4B6B51972
:10466600B59CC5FECE5FD6DFDEDFDF5FDF3FE71F2F
:10467600DEFED69CBDB98BD1A412D537DDBAEE1CB1
:10468600EE5DEE7DEEBEF6DFF6FFF71FF73FF73F76
:10469600FF3FFF3FFF5FFF5FFF5FFF5FFF5FFF3F84
:1046A600FF3FFF1FFF1FFF1EFEFDF6DDEE9BEE7AAE
:1046B600EE59E617E5F6DD94C4F1BC6EBC2DC46E6A
:1046C600CCAFD4F0DD51E571DD51DD31D510D4EF3D
:1046D600CCCEC4AEB44D9BCC834B72EA628849E61D
:1046E60010A200200821084108410841084108217C
:1046F60008410842084208620882088200420041D6
:1047060008420841086208620821082108210021A0
:10471600084110A310A318E42986214531E931C9BF
:104726003A08322B324C225012D70AF912D912D932
:1047360012D912D81AB70AFA0B391AD90AF90B196B
:104746000B19131A02BA6CDCC5D99457AD7CBDDEC1
:10475600BE1EBE1FCE7FD69FDEFFE73FE75FE75F49
:10476600E75FE77FF7BFDEFEA4D693D2B494D558B1
:10477600DD99DDBAE61BE65DEE9EEEDFF6FFF71F7E
:10478600F73FF75FFF7FFF5FFF7FFF7FFF9FFF7FA3
:10479600FF7FFF5FFF5FFF3FFF1EF6FEF6DDF6DCE5
:1047A600EE9BEE7AE658E617E5F6DDB4CD31C48F1A
:1047B600BC2DBC0CC42DCC6EC46EBC4DB40CA3EC8D
:1047C600938B7B2A6AA95A685A475A68526821030A
:1047D60000410841082208410841084108420842B0
:1047E600084208410841086210A30882086208626C
:1047F6000841084108620862082108210041084171
:1048060010C421670883192529A729A8322A3A6CDA
:1048160039E82A2C2A2B1AB412F90AF90AD912F9FC
:1048260012D912F912B812FA0B1912D912F90B1A77
:104836000B19131A02BA6CDCC63B94FBA55DAD9E40
:10484600BDFFBE3EC65FD69FDEFFDF1FE73FE73FE9
:10485600E73FE71FE75FEFBFEFBFC65C943393B157
:10486600BC95CD38D599DD99DDFBE65DEE9FEEDF93
:10487600EF3FF75FF77FF75FFF7FFF9FFFBFFFBF4A
:10488600FF9FFF9FFF7FFF5FFF3FFF1FF71EF6FDA6
:10489600F6FCF6DBF6BAEE99E657E616DDD5DDB39D
:1048A600D552C4AFB3CC82C862475A275A075207BB
:1048B60052074A2752475A885AA8524752AA18E41A
:1048C6000841084208420841084108410841084297
:1048D60008420841084208620882086208620862C3
:1048E600084108610882084208210841002110C4D5
:1048F6002A2B192618822125296731EA32EF4B30F7
:1049060041C8326E2A2C12B712F90AFA12D912D9F4
:1049160012F90AF912B90B190B1A0B1A12D912FA53
:104926000B1A12F902BA6CBCBE1B849A9D5CA59E3A
:10493600ADDEBE3EC65FD69FDEFFE73FE73FE73F01
:10494600E73FE75FE75FEF7FEF7FEF9FDF3F9CB6D5
:1049560073508BD2A474BCF6D558DDBADE1CE67D46
:10496600EEDFF71FF73FF77FFF7FFF9FFF9FFF9F5A
:10497600FF9FFF9FFF7FFF5FFF5FFF3FFF3FFF3E02
:10498600FF3DF71DF6FCF6DAEEBAEE99EE58E6377D
:10499600E616E5F5DDB3B4AF7B2B5A27520752482E
:1049A600528862886AC96AE96AC93144422918E4A8
:1049B6000841086208420841084108410842084285
:1049C6000842084208420882088208620862088291
:1049D600086208A310A30821084100410842220CDE
:1049E600224C10621082192531E8428D5436430F4D
:1049F60039E83B102A8F12B70AF90AFA12F912F9A6
:104A060012F912D912D90B19131A131A12D9131A29
:104A16000B1A12F902BA6CBCB5FB74599D5DA5DE82
:104A2600ADBEBE3EC67ECE9EDEFFDF3FE73FE73F22
:104A3600EF7FE75FE73FE75FEF5FEF7FEF9FE75FC0
:104A46009D3963506B2F8BF2B4D6CD38D579DDFB0B
:104A5600E65DEEBEEEFFF73FF73FF77FF77FF77FA6
:104A6600FF7FFF7FFF5FFF5FF73FF73FF73FFF5F88
:104A7600FF5EFF3EFF1DF71CF6FCF6FBF6DBF6DAE3
:104A8600F6B9F6B9EE57EE35DDD4C4F093CC7B2AF1
:104A96006B0A7309732973296AA918C34249214508
:104AA60010A308830841084108410841084208420A
:104AB60008420842086208820862086208620882A0
:104AC60010C419051082002108620861216832F0BD
:104AD60021A808411082212531E85BB464973ACEBB
:104AE6003A4B43734B9312B70B1A131A0AF90AFA85
:104AF60012FA12FA12F90B1A131A0B1A0AF9131AE6
:104B0600131A12F902BA6CBCBE1B7C9A951CA5BE80
:104B1600B61FB5FEC67ED6FFD6DFD6FFE75FE75FD8
:104B2600E75FE73FEF7FEF9FEF9FEF7FEF9FEFBFDF
:104B3600E75F9D1B6B92739283D2A475BCF7CD5829
:104B4600D5BADE1CE67DEEBEEEFFEF1FF73FF75F40
:104B5600F75FF75FF75FFF3FF73FF73FF73FFF3F2F
:104B6600FF3EFF3EFF1DF71CF71CF71CFF1CFF1C3A
:104B7600FF3BFF1BF6FAF6B9EE77EE36DDB3C5312D
:104B8600A46E8BCB7B6A7B49628818824AAA216510
:104B9600216610C4084208410041084108421062DB
:104BA600086208620862088208620862086208A34E
:104BB600192610E50820086108821105335232F0E3
:104BC6001925084110A3214629E97CF974D64B50D2
:104BD60042AD645753F51AF8031A0B1A0B190B1A40
:104BE60012F912FA0AF90B1A0B1A0B1A0B190AF90F
:104BF60012FA12F902B96CDCBE1B7C9A951CA5BE92
:104C0600B61FC67FCE9FCEBFD6DEDEFFE73FE73FAD
:104C1600EF7FEF7FEF9FEF7FEFBFEF9FEF7FEF7F9E
:104C2600EF9FDF1F9D1A7BF673B47BB18C12ACB578
:104C3600C517C558D5BADE1CE65DE69EEEDFEEFF6B
:104C4600EF1FF73FF73FF73FF73FF71FF71FFF3F0E
:104C5600FF3EF73DF71DF71CF6FBF6FBFF1CFF1C9E
:104C6600FF3CFF3CFF3CFF1BF6FAF6B9EE77E63653
:104C7600DDD3CD51B48FA40D72C820A24AEC1925FC
:104C860032292166088208620841084108621062DA
:104C9600086208621082088208820882086210C4CC
:104CA600194610E4082110A210C33B1154363AF0FD
:104CB60010C4086218E4214642EF9DDC6C954B3027
:104CC60042EE855A6CB83BF80B3A0AFA0B190B19E7
:104CD6000AF912FA12F90B1A0B1A0B1A0AFA0AF93E
:104CE6000AF912F902B96CDCBE1B7C799D5DA5BE82
:104CF600B61FC69FC69ECEBFDF3FDEFFDEFFE75F65
:104D0600F7BFE75FE75FE75FEF9FEF9FEF5FE75F65
:104D1600E75FEF9FDEFFA57C84377BD473717B90C2
:104D26009433ACD6BD38C579CDBAD5DBDE3CE65D6D
:104D3600E6BEEEFFF71FF71FF71FF71FF71EF71E5A
:104D4600F73EF71DF6FDF6FCF6DBF6DBF6DAF6FBCC
:104D5600FF1BFF1BFF1CFF3CFF5CFF1BF6DAF698F0
:104D6600EE57EE16E5D4D592BCF0836C6B6C29C772
:104D76003ACD2A0918A410A3108108821082108245
:104D860010620862108308A208A30883088310A48F
:104D9600214608A3086119042A2C4C375BF34B9271
:104DA60010C31082210429864B51853B6C764B51EA
:104DB6005BD395DB8D7A6D193C5B02DA0AFA0B1A26
:104DC6000B190AF912D912F90B39131A12FA0AFA3F
:104DD60012FA12F902BA6CBCBE1B84BA953CADDE5F
:104DE600B5FEBE5FCEBFD6FFD6DFDEFFE71EE75FAE
:104DF600EF7FEF7FE75FEF7FE73FEF9FEF9FEF7F6D
:104E0600EF7FEFBFEFBFDF3FB63D94FB843773B351
:104E160073926B2F732EA474B517BD38C578CDBAAF
:104E2600DDFBE65CEE9DEEDEF6DEF6DEF6DEF6FE9B
:104E3600F6FDF6FCF6DCF6DBEEBBEEBAEEBAF6BA3B
:104E4600F6DAF6DBF6FBFF3CFF3CFF3BFF1BF6DA30
:104E5600F6B8EE77EE56E635E5F4D5B3C511940D02
:104E660073CF4AAB210410C410E408A210A318C3E0
:104E760010820862108310C410E410A310A410C49A
:104E860019460862088321873B945C3674D85370B0
:104E960008821082212531A764359DDC7CD653B368
:104EA6006C5595DC9DFC7D19757C1B7B0AFA0B19EC
:104EB6000B1A0B1A12FA0B190B390B190AFA12FAFA
:104EC60012FA12F902BA6CBCBE1B84BB9D5DA59D8D
:104ED600B61EC67FC67FCE9ED6DFDF3FE73FE73FE3
:104EE600E73FEF5FEF7FE75FE75FE77FEFBFEF9FAC
:104EF600EF9FEF9FEF9FEF9FDF5FC67EA5BD9D1CD7
:104F060084386330316641A85A8C83909C54B4F639
:104F1600C516CD58DDB9E63BE67CE67CE69CEE9C04
:104F2600EE9CEE9CEE9BEE9AEE9AE67AE679E679B0
:104F3600EE99EEBAF6DAF6FBF71BFF1BFF1BF6FB44
:104F4600F6DAF6D9F6B8F698EE57EE36E5F5DD92CE
:104F5600CD51AC90734B5249632E634F216618E3D3
:104F660018C3108210A318E41926190510C410E4FA
:104F760018E4084119042A6C43F75C778DBA328C21
:104F8600106220E53A2A31E87C96ADFC7CD65BD3EC
:104F96007CF895BCAE5E857B95DC6D3E0B190B19D6
:104FA60013190B1A0B1A0AFA0B1912F912FA0AFA42
:104FB6000AFA12FA02BA6CBCBE3C84BB9D7DA59E61
:104FC600B5FEBE3EBE3ECE9FDEFFDF3FDF1FE73FA4
:104FD600E75FE75FEF9FEF7FE77FE75FEF9FEF9F7B
:104FE600EF7FE77FE77FE75FDF3FDF5FCEDED6FF5E
:104FF600B61F8C9A422B31663166316639A76AED47
:1050060093F1AC74BCF5C557CD98D5D8DDF9DE3A29
:10501600E63AE65AE65AE659E659E659E659E658B0
:10502600E658E679EE99EEBAF6DAF6DAF6DAFEDB65
:10503600F6DBFEDAFEFAF6DAF6B9EE77EE56E615A6
:10504600E5D4DDB3D572C51093ACAD77BE7C5B4FAE
:105056002146088210A219252187216719251905DD
:1050660010E4086219873B5254186478959A3A6B93
:1050760018C329884AEE320984B6A5FC6C576455D4
:10508600AE3CC6FECF3EB69E9E3DB6DE447C02FAE0
:10509600131A0B1A0AFA0AFA12FA12FA0AFA0AFA90
:1050A6000AFA12FA02BA6CDCBE3C84BB9D7DADBE28
:1050B600ADBDB61EC69FCE9FD6BFD6DFDEFFE73F8D
:1050C600E75FEF7FEF7FEFBFE77FE75FE75FEFBF6A
:1050D600EF9FE79FE77FE75FD6DFDF5FDF5FE79F53
:1050E600E7BFB63F4A8D318631A731A7314629053C
:1050F60039A7628B7B8F9C52AC93BCD4C535CD76D9
:10510600CDB7D5D8D5D8D5D7D5F7DE18DE18DE3841
:10511600DE38DE38E658E679EE99EEBAF6BAF6DA11
:10512600F6DAF6FAF6FBF6FBF6DAF6B9F698EE7765
:10513600EE56E636EE15E5D4CD31ACD1EF7FE79FDE
:10514600ADFB741342AC21662167298721461925D8
:1051560021C91946220A4C175C587D1A8D794AEDE9
:10516600212652ED4B0E3A2A6C34A61B8D187CB7BD
:10517600B67DAE3DAE7DBEFFAE7DC6DE9E5F239A9A
:105186000AFA0B1A0B1A0B1A12FA12F90AF912FA80
:1051960012FA12FA02BA6CDCBE1C84BB9D5DA57DB8
:1051A600ADDEB5FFC65FCE7FCE9FDEFFDF1EE77F9B
:1051B600E77FEF7FEF7FE77FEFBFEF9FE75FEF9F31
:1051C600EFBFE77FE79FE79FE75FDF5FDF7FDF7F79
:1051D600F7FFE77F5B2F318739A739A73987316614
:1051E6003146314620E441A7730D8BD09410A4516B
:1051F600ACB3BD14BD35BD35C576CDB6CDD7D5F767
:10520600D617DE17DE38DE58E679EE9AF6BAF6DA03
:10521600F6DBF6DBF6FBF6FBF6FBF6DAF6D9F6B9C5
:10522600F698F698F677EE56E614BCF1DEFCF7DF54
:10523600F7DFDF5FC6BF9DBB63D3428D2187214663
:105246003B1021E9220A4C175C988D9B7CF64B2F6C
:1052560029A85BB24B0D4AED7433B5D9ADFA8D1959
:105266009DDCB69EC6FECF3FBEBEAE5DB69F651D3B
:10527600031A131A0B1A0B1A12F912F912F912FA67
:1052860012DA12FA02BA6CBCBE1B7CBA953BA59E1A
:10529600ADDEB5FEBE3EC67ED6FFDF3FE73FE75F2B
:1052A600E75FE73FEF7FEFBFEF9FEFBFE75FE73FC8
:1052B600EFBFDF7FDF7FEF9FDF3EDF3FE79FEFDF61
:1052C600F7FFF7FFB5F93A0939E839A739A7318762
:1052D600316631872945106220A33966526A5ACA57
:1052E6007B6D93CE940F9C50ACB2B514BD55C5756D
:1052F600CDB6D5D7D5F7DE38DE58E699EE9AF6BAAA
:10530600F6BAF6DBFEFBF6FBF6FBFEFAFEDAF6DA9B
:10531600F6B9FEB9F6B8F697EE77D573DEBBF7DFCA
:10532600F7DFEF9FDF5FDF5FD71FC69E9D7A6C5565
:105336005C3732CE19A95C38751A9E1D9D9953515A
:1053460029C85B93532E84738CD584D6AE3C8D18B6
:10535600BE9DDFBFCF3ECF3FC71FAE9DB6DFA67F48
:105366002BBB02FA131A0B1A1319131912F912FA94
:1053760012FA12FA02BA6CDCBE1B7C999D3CA57D22
:10538600ADDEB5FEBE3ECE9FD71FDF5FDF3FDF1F20
:10539600E75FEF7FE77FEF9FEFBFEF9FEFBFDF3F57
:1053A600E75FE77FDF5FEFBFEFBFDF7FDF7FEFDF27
:1053B600FFDFF7DFEFBF6B90422A420841C839A7EB
:1053C60031663987318718C418821882316631A749
:1053D6005A8A8B2A938B93CC93CD940F9C71ACD223
:1053E600BD34C575CDB6D5F7DE17DE58E679EE794C
:1053F600EE99EEBAF6DAF6FBF6FBF6FAFEDAFEDA26
:10540600FEDAFEDAFED9F6B9F698DDD5DE59FFDF0B
:10541600F7DFF7DFEF9FE77FE77FDF5FDF3FDF5FE6
:10542600C6DFA5FD7CB77CFA8D9BAE9E9DBA84B582
:1054360031E86C1353308CD66BD1957AB65CAE5B83
:10544600D77FDF9FDF9FDF7FE79FDF9ED77EDFBFB0
:10545600963E1B9A0AFA0B19131912F90AF912FA4F
:1054660012FA12FA029A6CBCBE1B7C79951CA57DB9
:10547600ADBEB5FEC67FCEBFD6DFD6FFDF3FE75F48
:10548600E77FE77FEF9FEF9FEFBFEF9FEF9FE77FFE
:10549600DF3FE75FE77FE79FE7BFDF3FDF5FE79F2E
:1054A600F7DFF7FFF7FF9D1752CE52CD4A4B39C8AB
:1054B600398739A731872125108218A318C331A748
:1054C600422972CA936AA3ABA3ECA3CC93AC8BCE4E
:1054D6009C50ACD3BD34C595CDB6D5F7DE38E6586D
:1054E600E679EE99EEBAF6DAF6DAF6DAF6DAF6DA18
:1054F600F6DAF6DAF6DAF6D9F6D9DDF5D5F7FFDF1C
:10550600FFDFFFFFF7BFEF9FEF9FEF9FEF9FEF9F3D
:10551600DF5FD73FD73FC6DFB67FA63D959B955940
:105526005B9264135B927C955B70BE7CCF1EBEBDA6
:10553600D75FE7BFEFDFEFDFEFDFEFFFDF7ED73EBF
:10554600DF7FB6FE3C1B02FA131A131912FA0AFA87
:1055560012FA12D90ABA6CBCB5FB7C9A8CFB9D5C1C
:10556600A5BEB61FC65FCE9FCE9FD6DFDF3FE75FE5
:10557600E77FE77FEF9FEFBFEF9FEFBFE79FEFBFAD
:10558600E77FDF3FDF7FDF7FEFDFDF7FDF5FDF9FED
:10559600E7DFEFFFF7FFD71D63D55392530F4A6B33
:1055A60041C839C739A7316618A318A318822145FF
:1055B600420841E7830A9B8BABCBAC0CAC0C9BEB54
:1055C6008B8C8BAD9C50B4F3BD34CD95D5D7DE17FF
:1055D600E658E679EE99EEBAF6DAF6DAF6DAF6DAB9
:1055E600F6DAF6DAF6DAF6DAF6DAE616D5F7FFFFDF
:1055F600FFFFFFFFF7BFF79FF7BFF7DFF7BFEF7FAD
:10560600E77FEF9FEF9FDF5FD73FCF1FC6FFBEBF8E
:10561600B69FA61D957A7CF97C96BE9DC6BED75FC1
:10562600E7BFEFFFE7DFE7DFE7BFE7BFDF9FBEDEEE
:10563600A67EAE7E963D239A0AFA131912FA12DA5C
:1056460012DA12D9029A6CBCADDA74598CFB953C0D
:10565600A5BEB63EBE3FC65FCEBFCEDFDF1FE75F4D
:10566600EFBFEF9FE77FEF9FEFBFEFBFEFBFE7BF54
:10567600E79FDF3FE75FDF7FE7BFE79FDF5FDF9FF4
:10568600E7DFEFDFEFDFEFDF955B63D75BB4534F09
:105696004A6B41E839C731A72104108310A3108251
:1056A600292431864A49936BA3ABA3ECABEBB40C2C
:1056B600B42CA3CB836B83CE9C71B513BD74CDB6CE
:1056C600D617DE58E679EE99EEBAF6DAF6DAF6DAB3
:1056D600F6DAF6DAF6FAF6DAF6DAE616CDB6FFFF17
:1056E600FFFFFFFFF7DFFFDFF7DFF7DFF7DFF7BFCC
:1056F600EF9FF7DFF7DFEF9FE79FE77FD73FD71FE4
:10570600D71FCF3FCF1FC6DFAE7F9E1DAE5CB69DB7
:10571600CF1EDF9FEFBFEFFFE7BFDF9FCF5FB6BEB6
:1057260095FDA65FB6DF9E5D2BD90AD912F912F94F
:1057360012D912D902996C9CADDA74598CDB9D5D35
:10574600A57DADDEBE3EC67FCEBFD6FFDF3FDF5FA7
:10575600E77FEF9FEF9FEF9FEF9FEF9FEFBFE79FE3
:10576600E79FE75FDF3FDF5FE79FE79FDF3FDF5FA3
:10577600E7BFEFDFE7BFEFDFC6BE7C9B6C395BB4EC
:1057860053304A8C422939C82966108310831882FF
:105796001882292539E85227938BA3CBABECABEBC8
:1057A600AC0CB42CAC0C8B8B7B4B8BEEA4B1B53410
:1057B600C595D5D7DE18E658E679EE9AEEBAF6DA4A
:1057C600F6DAF6DAF6FAF6DAF6DAE617CDB6FFFF25
:1057D600FFFFFFFFFFDFFFFFFFDFF7DFF7DFFFDF83
:1057E600F7DFF7DFF7BFF7BFF7BFEF9FE77FE77F8B
:1057F600E77FDF7FD75FD73FCF3FCF1FBEDFB69FA5
:10580600AE5EAE5EBE9DC6DEB6BDA63DA65EA67FFC
:10581600AE9FB6DFBEFFC71F961D13590AD912F9F0
:1058260012D912D902796C9CB5DA6C188CFB953CAE
:105836009D5CADBEB5FEC67FD6FFD71FDF3FDF3FFF
:10584600E75FEF9FEF9FE77FEF9FEFBFEFBFEFBFF2
:10585600E77FE75FDF3FDF7FDF9FE79FD73FD71F0A
:10586600DF5FE79FE7DFEFDFD77FA5FF84FC6C38BC
:105876005BB453504AAC3A0939E818C41062108236
:1058860010821082210429455248938BA3EBA3CBA7
:10589600ABEBAC0BB42CBC4CA3CB72EA7B6D9C502F
:1058A600ACF2BD54CDB6D5F7DE38E679EE99EE9971
:1058B600EEB9EEBAF6DAF6DAF6FAE617C575FFFFCE
:1058C600FFFFFFFFFFFFFFFFFFDFF7DFF7DFFFFF52
:1058D600F7DFF7DFF7DFF7DFF7BFF7BFEFBFEF9FC2
:1058E600EF9FEFBFE79FE77FDF7FDF5FD73FD71FE2
:1058F600CF3FCF5FC71EB67FAE7FAE5EA63E95FD9D
:10590600AE7EB69EAE7DB6BEB6DF757D133A12F993
:105916001B1A12F902796CBCADDA6C188CFB951B5C
:105926009D5CA5BEB5DEC63FCEDFD6FFD6FFE73F00
:10593600E73FE75FEFBFEF9FEFBFEFBFEFBFEF9F21
:10594600E75FDF3FDF3FDF5FDF7FDFBFD75FD73F49
:10595600CF1FD73FE7DFEFDFDF9FBE9FAE3F84FC61
:105966006BF75BD553514A6C422A29871082108205
:1059760010821082188220E431865AAA836B9BCB50
:10598600A3CBABEBB42BB44CC46CB42C730962EA56
:105996008BEEA4B1B533C595CDD6D617DE38E6580D
:1059A600E679EE99EEBAF6DAF6DADDD6BD34F7DF49
:1059B600F7FFFFFFFFFFFFDFF7DFF7DFFFDFFFDFA9
:1059C600FFDFF7DFFFDFF7DFF7DFF7DFF7DFF7BF31
:1059D600EF9FEF9FEFBFEFBFF7DFEF9FE77FDF5F41
:1059E600DF7FDF7FDF7FD77FCF5FC71FBEDFBEDFF3
:1059F600B69FA61D8D7C9DFDA65E9E3E651C0B7A00
:105A0600035B133A02B96CBCADDA6C1784BA953CE9
:105A16009D5CADBEB5FEBE1FC65FCEDFDF1FDF1FBE
:105A2600DF3FE75FEF9FEF9FEF9FEF9FEF9FEFBF98
:105A3600E77FDF1FDF3FDF3FDF5FDF7FD71FCF1F40
:105A4600D73FDF7FEFDFEFDFDF7FBE7FBEBFA5FF84
:105A56007CBB64185BD64ACF428B3A0A18C31082C5
:105A660010821082188218A221243A0939E7730B92
:105A76008B8D8B8B93CB9BEC9BEC9BCC7B8D636D47
:105A86005AAA738C9450ACD2BD54CDB5D5D6D61780
:105A9600DE38E678E699EE9AEEBACD95B4D3F7DF1E
:105AA600F7DFFFFFFFDFFFDFFFDFFFDFFFDFFFDFE8
:105AB600FFDFFFDFF7DFF7DFF7DFF7BFF7BFF7DF60
:105AC600F7DFF7BFF7DFEFBFF7DFEFBFF7BFEFBFD8
:105AD600EF9FE77FE77FE79FE7BFDF9FD75FCF3F78
